{
  "_format": "hh-sol-artifact-1",
  "contractName": "ERC20Token",
  "sourceName": "contracts/ERC20Token.sol",
  "abi": [
    {
      "inputs": [],
      "stateMutability": "nonpayable",
      "type": "constructor"
    },
    {
      "anonymous": false,
      "inputs": [
        {
          "indexed": false,
          "internalType": "address",
          "name": "previousAdmin",
          "type": "address"
        },
        {
          "indexed": false,
          "internalType": "address",
          "name": "newAdmin",
          "type": "address"
        }
      ],
      "name": "AdminChanged",
      "type": "event"
    },
    {
      "anonymous": false,
      "inputs": [
        {
          "indexed": true,
          "internalType": "address",
          "name": "owner",
          "type": "address"
        },
        {
          "indexed": true,
          "internalType": "address",
          "name": "spender",
          "type": "address"
        },
        {
          "indexed": false,
          "internalType": "uint256",
          "name": "value",
          "type": "uint256"
        }
      ],
      "name": "Approval",
      "type": "event"
    },
    {
      "anonymous": false,
      "inputs": [
        {
          "indexed": true,
          "internalType": "address",
          "name": "beacon",
          "type": "address"
        }
      ],
      "name": "BeaconUpgraded",
      "type": "event"
    },
    {
      "anonymous": false,
      "inputs": [
        {
          "indexed": true,
          "internalType": "address",
          "name": "from",
          "type": "address"
        },
        {
          "indexed": true,
          "internalType": "uint256",
          "name": "amount",
          "type": "uint256"
        }
      ],
      "name": "Burn",
      "type": "event"
    },
    {
      "anonymous": false,
      "inputs": [
        {
          "indexed": false,
          "internalType": "uint8",
          "name": "version",
          "type": "uint8"
        }
      ],
      "name": "Initialized",
      "type": "event"
    },
    {
      "anonymous": false,
      "inputs": [
        {
          "indexed": true,
          "internalType": "address",
          "name": "to",
          "type": "address"
        },
        {
          "indexed": true,
          "internalType": "uint256",
          "name": "amount",
          "type": "uint256"
        }
      ],
      "name": "Mint",
      "type": "event"
    },
    {
      "anonymous": false,
      "inputs": [
        {
          "indexed": false,
          "internalType": "address",
          "name": "account",
          "type": "address"
        }
      ],
      "name": "Paused",
      "type": "event"
    },
    {
      "anonymous": false,
      "inputs": [
        {
          "indexed": true,
          "internalType": "bytes32",
          "name": "role",
          "type": "bytes32"
        },
        {
          "indexed": true,
          "internalType": "bytes32",
          "name": "previousAdminRole",
          "type": "bytes32"
        },
        {
          "indexed": true,
          "internalType": "bytes32",
          "name": "newAdminRole",
          "type": "bytes32"
        }
      ],
      "name": "RoleAdminChanged",
      "type": "event"
    },
    {
      "anonymous": false,
      "inputs": [
        {
          "indexed": true,
          "internalType": "bytes32",
          "name": "role",
          "type": "bytes32"
        },
        {
          "indexed": true,
          "internalType": "address",
          "name": "account",
          "type": "address"
        },
        {
          "indexed": true,
          "internalType": "address",
          "name": "sender",
          "type": "address"
        }
      ],
      "name": "RoleGranted",
      "type": "event"
    },
    {
      "anonymous": false,
      "inputs": [
        {
          "indexed": true,
          "internalType": "bytes32",
          "name": "role",
          "type": "bytes32"
        },
        {
          "indexed": true,
          "internalType": "address",
          "name": "account",
          "type": "address"
        },
        {
          "indexed": true,
          "internalType": "address",
          "name": "sender",
          "type": "address"
        }
      ],
      "name": "RoleRevoked",
      "type": "event"
    },
    {
      "anonymous": false,
      "inputs": [
        {
          "indexed": false,
          "internalType": "address",
          "name": "burner",
          "type": "address"
        },
        {
          "indexed": true,
          "internalType": "address",
          "name": "SanctionAddress",
          "type": "address"
        },
        {
          "indexed": true,
          "internalType": "uint256",
          "name": "previousBalance",
          "type": "uint256"
        },
        {
          "indexed": true,
          "internalType": "uint256",
          "name": "currentBalance",
          "type": "uint256"
        }
      ],
      "name": "SanctionBalanceBurn",
      "type": "event"
    },
    {
      "anonymous": false,
      "inputs": [
        {
          "indexed": false,
          "internalType": "address",
          "name": "oldSanctionListAddress",
          "type": "address"
        },
        {
          "indexed": false,
          "internalType": "address",
          "name": "newSanctionListAddress",
          "type": "address"
        },
        {
          "indexed": false,
          "internalType": "address",
          "name": "sender",
          "type": "address"
        }
      ],
      "name": "SanctionListAddressChanged",
      "type": "event"
    },
    {
      "anonymous": false,
      "inputs": [
        {
          "indexed": false,
          "internalType": "address",
          "name": "rescuer",
          "type": "address"
        },
        {
          "indexed": true,
          "internalType": "address",
          "name": "tokenAddress",
          "type": "address"
        },
        {
          "indexed": true,
          "internalType": "uint256",
          "name": "amount",
          "type": "uint256"
        },
        {
          "indexed": false,
          "internalType": "uint256",
          "name": "previousBalance",
          "type": "uint256"
        },
        {
          "indexed": true,
          "internalType": "uint256",
          "name": "currentBalance",
          "type": "uint256"
        }
      ],
      "name": "TokenRescued",
      "type": "event"
    },
    {
      "anonymous": false,
      "inputs": [
        {
          "indexed": true,
          "internalType": "address",
          "name": "from",
          "type": "address"
        },
        {
          "indexed": true,
          "internalType": "address",
          "name": "to",
          "type": "address"
        },
        {
          "indexed": false,
          "internalType": "uint256",
          "name": "value",
          "type": "uint256"
        }
      ],
      "name": "Transfer",
      "type": "event"
    },
    {
      "anonymous": false,
      "inputs": [
        {
          "indexed": false,
          "internalType": "address",
          "name": "account",
          "type": "address"
        }
      ],
      "name": "Unpaused",
      "type": "event"
    },
    {
      "anonymous": false,
      "inputs": [
        {
          "indexed": true,
          "internalType": "address",
          "name": "implementation",
          "type": "address"
        }
      ],
      "name": "Upgraded",
      "type": "event"
    },
    {
      "inputs": [],
      "name": "BURNER_ROLE",
      "outputs": [
        {
          "internalType": "bytes32",
          "name": "",
          "type": "bytes32"
        }
      ],
      "stateMutability": "view",
      "type": "function"
    },
    {
      "inputs": [],
      "name": "DEFAULT_ADMIN_ROLE",
      "outputs": [
        {
          "internalType": "bytes32",
          "name": "",
          "type": "bytes32"
        }
      ],
      "stateMutability": "view",
      "type": "function"
    },
    {
      "inputs": [],
      "name": "MINTER_ROLE",
      "outputs": [
        {
          "internalType": "bytes32",
          "name": "",
          "type": "bytes32"
        }
      ],
      "stateMutability": "view",
      "type": "function"
    },
    {
      "inputs": [],
      "name": "PAUSER_ROLE",
      "outputs": [
        {
          "internalType": "bytes32",
          "name": "",
          "type": "bytes32"
        }
      ],
      "stateMutability": "view",
      "type": "function"
    },
    {
      "inputs": [],
      "name": "RESCUE_MANAGER_ROLE",
      "outputs": [
        {
          "internalType": "bytes32",
          "name": "",
          "type": "bytes32"
        }
      ],
      "stateMutability": "view",
      "type": "function"
    },
    {
      "inputs": [],
      "name": "UPGRADER_ROLE",
      "outputs": [
        {
          "internalType": "bytes32",
          "name": "",
          "type": "bytes32"
        }
      ],
      "stateMutability": "view",
      "type": "function"
    },
    {
      "inputs": [
        {
          "internalType": "address",
          "name": "owner",
          "type": "address"
        },
        {
          "internalType": "address",
          "name": "spender",
          "type": "address"
        }
      ],
      "name": "allowance",
      "outputs": [
        {
          "internalType": "uint256",
          "name": "",
          "type": "uint256"
        }
      ],
      "stateMutability": "view",
      "type": "function"
    },
    {
      "inputs": [
        {
          "internalType": "address",
          "name": "spender",
          "type": "address"
        },
        {
          "internalType": "uint256",
          "name": "amount",
          "type": "uint256"
        }
      ],
      "name": "approve",
      "outputs": [
        {
          "internalType": "bool",
          "name": "",
          "type": "bool"
        }
      ],
      "stateMutability": "nonpayable",
      "type": "function"
    },
    {
      "inputs": [
        {
          "internalType": "address",
          "name": "account",
          "type": "address"
        }
      ],
      "name": "balanceOf",
      "outputs": [
        {
          "internalType": "uint256",
          "name": "",
          "type": "uint256"
        }
      ],
      "stateMutability": "view",
      "type": "function"
    },
    {
      "inputs": [
        {
          "internalType": "uint256",
          "name": "amount",
          "type": "uint256"
        }
      ],
      "name": "burn",
      "outputs": [],
      "stateMutability": "nonpayable",
      "type": "function"
    },
    {
      "inputs": [
        {
          "internalType": "address",
          "name": "sanctionedAddress",
          "type": "address"
        }
      ],
      "name": "burnSanctionedBalance",
      "outputs": [],
      "stateMutability": "nonpayable",
      "type": "function"
    },
    {
      "inputs": [],
      "name": "decimals",
      "outputs": [
        {
          "internalType": "uint8",
          "name": "",
          "type": "uint8"
        }
      ],
      "stateMutability": "view",
      "type": "function"
    },
    {
      "inputs": [
        {
          "internalType": "address",
          "name": "spender",
          "type": "address"
        },
        {
          "internalType": "uint256",
          "name": "subtractedValue",
          "type": "uint256"
        }
      ],
      "name": "decreaseAllowance",
      "outputs": [
        {
          "internalType": "bool",
          "name": "",
          "type": "bool"
        }
      ],
      "stateMutability": "nonpayable",
      "type": "function"
    },
    {
      "inputs": [
        {
          "internalType": "bytes32",
          "name": "role",
          "type": "bytes32"
        }
      ],
      "name": "getRoleAdmin",
      "outputs": [
        {
          "internalType": "bytes32",
          "name": "",
          "type": "bytes32"
        }
      ],
      "stateMutability": "view",
      "type": "function"
    },
    {
      "inputs": [
        {
          "internalType": "bytes32",
          "name": "role",
          "type": "bytes32"
        },
        {
          "internalType": "address",
          "name": "account",
          "type": "address"
        }
      ],
      "name": "grantRole",
      "outputs": [],
      "stateMutability": "nonpayable",
      "type": "function"
    },
    {
      "inputs": [
        {
          "internalType": "bytes32",
          "name": "role",
          "type": "bytes32"
        },
        {
          "internalType": "address",
          "name": "account",
          "type": "address"
        }
      ],
      "name": "hasRole",
      "outputs": [
        {
          "internalType": "bool",
          "name": "",
          "type": "bool"
        }
      ],
      "stateMutability": "view",
      "type": "function"
    },
    {
      "inputs": [
        {
          "internalType": "address",
          "name": "spender",
          "type": "address"
        },
        {
          "internalType": "uint256",
          "name": "addedValue",
          "type": "uint256"
        }
      ],
      "name": "increaseAllowance",
      "outputs": [
        {
          "internalType": "bool",
          "name": "",
          "type": "bool"
        }
      ],
      "stateMutability": "nonpayable",
      "type": "function"
    },
    {
      "inputs": [
        {
          "internalType": "string",
          "name": "tokenName",
          "type": "string"
        },
        {
          "internalType": "string",
          "name": "tokenSymbol",
          "type": "string"
        },
        {
          "internalType": "string",
          "name": "tokenVersion",
          "type": "string"
        },
        {
          "internalType": "uint8",
          "name": "tokenDecimal",
          "type": "uint8"
        },
        {
          "internalType": "address",
          "name": "sanctionList",
          "type": "address"
        },
        {
          "internalType": "address",
          "name": "admin",
          "type": "address"
        },
        {
          "internalType": "address",
          "name": "pauser",
          "type": "address"
        },
        {
          "internalType": "address",
          "name": "minter",
          "type": "address"
        },
        {
          "internalType": "address",
          "name": "burner",
          "type": "address"
        },
        {
          "internalType": "address",
          "name": "upgrader",
          "type": "address"
        },
        {
          "internalType": "address",
          "name": "rescueManager",
          "type": "address"
        }
      ],
      "name": "initialize",
      "outputs": [],
      "stateMutability": "nonpayable",
      "type": "function"
    },
    {
      "inputs": [
        {
          "internalType": "address",
          "name": "_address",
          "type": "address"
        }
      ],
      "name": "isOnSanctionList",
      "outputs": [
        {
          "internalType": "bool",
          "name": "",
          "type": "bool"
        }
      ],
      "stateMutability": "view",
      "type": "function"
    },
    {
      "inputs": [
        {
          "internalType": "address",
          "name": "to",
          "type": "address"
        },
        {
          "internalType": "uint256",
          "name": "amount",
          "type": "uint256"
        }
      ],
      "name": "mint",
      "outputs": [],
      "stateMutability": "nonpayable",
      "type": "function"
    },
    {
      "inputs": [],
      "name": "name",
      "outputs": [
        {
          "internalType": "string",
          "name": "",
          "type": "string"
        }
      ],
      "stateMutability": "view",
      "type": "function"
    },
    {
      "inputs": [],
      "name": "pause",
      "outputs": [],
      "stateMutability": "nonpayable",
      "type": "function"
    },
    {
      "inputs": [],
      "name": "paused",
      "outputs": [
        {
          "internalType": "bool",
          "name": "",
          "type": "bool"
        }
      ],
      "stateMutability": "view",
      "type": "function"
    },
    {
      "inputs": [],
      "name": "proxiableUUID",
      "outputs": [
        {
          "internalType": "bytes32",
          "name": "",
          "type": "bytes32"
        }
      ],
      "stateMutability": "view",
      "type": "function"
    },
    {
      "inputs": [
        {
          "internalType": "bytes32",
          "name": "role",
          "type": "bytes32"
        },
        {
          "internalType": "address",
          "name": "account",
          "type": "address"
        }
      ],
      "name": "renounceRole",
      "outputs": [],
      "stateMutability": "nonpayable",
      "type": "function"
    },
    {
      "inputs": [
        {
          "internalType": "address",
          "name": "tokenAddress",
          "type": "address"
        },
        {
          "internalType": "uint256",
          "name": "rescueAmount",
          "type": "uint256"
        }
      ],
      "name": "rescueERC20",
      "outputs": [],
      "stateMutability": "nonpayable",
      "type": "function"
    },
    {
      "inputs": [
        {
          "internalType": "bytes32",
          "name": "role",
          "type": "bytes32"
        },
        {
          "internalType": "address",
          "name": "account",
          "type": "address"
        }
      ],
      "name": "revokeRole",
      "outputs": [],
      "stateMutability": "nonpayable",
      "type": "function"
    },
    {
      "inputs": [
        {
          "internalType": "bytes4",
          "name": "interfaceId",
          "type": "bytes4"
        }
      ],
      "name": "supportsInterface",
      "outputs": [
        {
          "internalType": "bool",
          "name": "",
          "type": "bool"
        }
      ],
      "stateMutability": "view",
      "type": "function"
    },
    {
      "inputs": [],
      "name": "symbol",
      "outputs": [
        {
          "internalType": "string",
          "name": "",
          "type": "string"
        }
      ],
      "stateMutability": "view",
      "type": "function"
    },
    {
      "inputs": [],
      "name": "totalSupply",
      "outputs": [
        {
          "internalType": "uint256",
          "name": "",
          "type": "uint256"
        }
      ],
      "stateMutability": "view",
      "type": "function"
    },
    {
      "inputs": [
        {
          "internalType": "address",
          "name": "recipient",
          "type": "address"
        },
        {
          "internalType": "uint256",
          "name": "amount",
          "type": "uint256"
        }
      ],
      "name": "transfer",
      "outputs": [
        {
          "internalType": "bool",
          "name": "",
          "type": "bool"
        }
      ],
      "stateMutability": "nonpayable",
      "type": "function"
    },
    {
      "inputs": [
        {
          "internalType": "address",
          "name": "sender",
          "type": "address"
        },
        {
          "internalType": "address",
          "name": "recipient",
          "type": "address"
        },
        {
          "internalType": "uint256",
          "name": "amount",
          "type": "uint256"
        }
      ],
      "name": "transferFrom",
      "outputs": [
        {
          "internalType": "bool",
          "name": "",
          "type": "bool"
        }
      ],
      "stateMutability": "nonpayable",
      "type": "function"
    },
    {
      "inputs": [],
      "name": "unpause",
      "outputs": [],
      "stateMutability": "nonpayable",
      "type": "function"
    },
    {
      "inputs": [
        {
          "internalType": "address",
          "name": "sanctionListAddress",
          "type": "address"
        }
      ],
      "name": "updateSanctionListAddress",
      "outputs": [],
      "stateMutability": "nonpayable",
      "type": "function"
    },
    {
      "inputs": [
        {
          "internalType": "address",
          "name": "newImplementation",
          "type": "address"
        }
      ],
      "name": "upgradeTo",
      "outputs": [],
      "stateMutability": "nonpayable",
      "type": "function"
    },
    {
      "inputs": [
        {
          "internalType": "address",
          "name": "newImplementation",
          "type": "address"
        },
        {
          "internalType": "bytes",
          "name": "data",
          "type": "bytes"
        }
      ],
      "name": "upgradeToAndCall",
      "outputs": [],
      "stateMutability": "payable",
      "type": "function"
    },
    {
      "inputs": [],
      "name": "version",
      "outputs": [
        {
          "internalType": "string",
          "name": "",
          "type": "string"
        }
      ],
      "stateMutability": "view",
      "type": "function"
    }
  ],
  "bytecode": "0x60a0604052306080523480156200001557600080fd5b506200002062000026565b620000e8565b600054610100900460ff1615620000935760405162461bcd60e51b815260206004820152602760248201527f496e697469616c697a61626c653a20636f6e747261637420697320696e697469604482015266616c697a696e6760c81b606482015260840160405180910390fd5b60005460ff9081161015620000e6576000805460ff191660ff9081179091556040519081527f7f26b83ff96e1f2b6a682f133852f6798a09c465da95921460cefb38474024989060200160405180910390a15b565b6080516141966200012060003960008181610d0c01528181610d4c0152818161123f0152818161127f015261130e01526141966000f3fe6080604052600436106102255760003560e01c806354fd4d501161012357806396d52d5d116100ab578063d547741f1161006f578063d547741f1461063f578063dd62ed3e1461065f578063e3da8e591461067f578063e63ab1e91461069f578063f72c0d8b146106c157600080fd5b806396d52d5d146105a8578063a217fddf146105c8578063a457c2d7146105dd578063a9059cbb146105fd578063d53913931461061d57600080fd5b8063739f08c8116100f2578063739f08c81461051e5780638456cb591461053e5780638cd4426d1461055357806391d148541461057357806395d89b411461059357600080fd5b806354fd4d501461049a5780635c975abb146104af5780635e09dc3c146104c857806370a08231146104e857600080fd5b80632f2ff15d116101b15780633f4ba83a116101755780633f4ba83a1461041d57806340c10f191461043257806342966c68146104525780634f1ef2861461047257806352d1902d1461048557600080fd5b80632f2ff15d1461037a578063313ce5671461039a57806336568abe146103bd5780633659cfe6146103dd57806339509351146103fd57600080fd5b80630e79876d116101f85780630e79876d146102d157806318160ddd146102f357806323b872dd14610308578063248a9ca314610328578063282c51f31461035857600080fd5b806301ffc9a71461022a5780630213bfc71461025f57806306fdde031461028f578063095ea7b3146102b1575b600080fd5b34801561023657600080fd5b5061024a6102453660046137ce565b6106e3565b60405190151581526020015b60405180910390f35b34801561026b57600080fd5b5061028160008051602061409a83398151915281565b604051908152602001610256565b34801561029b57600080fd5b506102a461071a565b604051610256919061381c565b3480156102bd57600080fd5b5061024a6102cc36600461386b565b6107ac565b3480156102dd57600080fd5b506102f16102ec366004613895565b610931565b005b3480156102ff57600080fd5b50603554610281565b34801561031457600080fd5b5061024a6103233660046138b0565b610a29565b34801561033457600080fd5b506102816103433660046138ec565b60009081526097602052604090206001015490565b34801561036457600080fd5b5061028160008051602061407a83398151915281565b34801561038657600080fd5b506102f1610395366004613905565b610c5a565b3480156103a657600080fd5b506101c45460405160ff9091168152602001610256565b3480156103c957600080fd5b506102f16103d8366004613905565b610c84565b3480156103e957600080fd5b506102f16103f8366004613895565b610d02565b34801561040957600080fd5b5061024a61041836600461386b565b610de1565b34801561042957600080fd5b506102f1610f54565b34801561043e57600080fd5b506102f161044d36600461386b565b610f66565b34801561045e57600080fd5b506102f161046d3660046138ec565b61112c565b6102f16104803660046139bd565b611235565b34801561049157600080fd5b50610281611301565b3480156104a657600080fd5b506102a46113b4565b3480156104bb57600080fd5b5061012d5460ff1661024a565b3480156104d457600080fd5b5061024a6104e3366004613895565b611443565b3480156104f457600080fd5b50610281610503366004613895565b6001600160a01b031660009081526033602052604090205490565b34801561052a57600080fd5b506102f16105393660046138ec565b6114b3565b34801561054a57600080fd5b506102f16116b2565b34801561055f57600080fd5b506102f161056e36600461386b565b6116ba565b34801561057f57600080fd5b5061024a61058e366004613905565b611a77565b34801561059f57600080fd5b506102a4611aa2565b3480156105b457600080fd5b506102f16105c3366004613a50565b611ab1565b3480156105d457600080fd5b50610281600081565b3480156105e957600080fd5b5061024a6105f836600461386b565b61206a565b34801561060957600080fd5b5061024a61061836600461386b565b6121dd565b34801561062957600080fd5b5061028160008051602061414183398151915281565b34801561064b57600080fd5b506102f161065a366004613905565b61232a565b34801561066b57600080fd5b5061028161067a366004613b62565b61234f565b34801561068b57600080fd5b506102f161069a366004613895565b6123a4565b3480156106ab57600080fd5b506102816000805160206140fa83398151915281565b3480156106cd57600080fd5b506102816000805160206140ba83398151915281565b60006001600160e01b03198216637965db0b60e01b148061071457506301ffc9a760e01b6001600160e01b03198316145b92915050565b60606036805461072990613b8c565b80601f016020809104026020016040519081016040528092919081815260200182805461075590613b8c565b80156107a25780601f10610777576101008083540402835291602001916107a2565b820191906000526020600020905b81548152906001019060200180831161078557829003601f168201915b5050505050905090565b60006107b66123ad565b61019154604051631782770f60e21b81526001600160a01b03808616600483015285921690635e09dc3c90602401602060405180830381865afa158015610801573d6000803e3d6000fd5b505050506040513d601f19601f820116820180604052508101906108259190613bc6565b1561084b5760405162461bcd60e51b815260040161084290613be8565b60405180910390fd5b3361019154604051631782770f60e21b81526001600160a01b03838116600483015290911690635e09dc3c90602401602060405180830381865afa158015610897573d6000803e3d6000fd5b505050506040513d601f19601f820116820180604052508101906108bb9190613bc6565b156108d85760405162461bcd60e51b815260040161084290613be8565b6001600160a01b0385166108fe5760405162461bcd60e51b815260040161084290613c1f565b6000841161091e5760405162461bcd60e51b815260040161084290613c61565b61092885856123f4565b95945050505050565b6109396123ad565b60008051602061407a8339815191526109518161240c565b6001600160a01b0382166109775760405162461bcd60e51b815260040161084290613ca8565b61098082611443565b61099c5760405162461bcd60e51b815260040161084290613be8565b6001600160a01b0382166000908152603360205260409020546109bf8382612416565b6001600160a01b038316600090815260336020526040812054905080826001600160a01b0386167fafe7fb2cada071fb95442cb579e3acd6974cef5372a084479839882c71735e4a336040516001600160a01b03909116815260200160405180910390a450505050565b6000610a336123ad565b61019154604051631782770f60e21b81526001600160a01b03808716600483015286921690635e09dc3c90602401602060405180830381865afa158015610a7e573d6000803e3d6000fd5b505050506040513d601f19601f82011682018060405250810190610aa29190613bc6565b15610abf5760405162461bcd60e51b815260040161084290613be8565b61019154604051631782770f60e21b81526001600160a01b03808716600483015286921690635e09dc3c90602401602060405180830381865afa158015610b0a573d6000803e3d6000fd5b505050506040513d601f19601f82011682018060405250810190610b2e9190613bc6565b15610b4b5760405162461bcd60e51b815260040161084290613be8565b3361019154604051631782770f60e21b81526001600160a01b03838116600483015290911690635e09dc3c90602401602060405180830381865afa158015610b97573d6000803e3d6000fd5b505050506040513d601f19601f82011682018060405250810190610bbb9190613bc6565b15610bd85760405162461bcd60e51b815260040161084290613be8565b6001600160a01b038716610bfe5760405162461bcd60e51b815260040161084290613ce9565b6001600160a01b038616610c245760405162461bcd60e51b815260040161084290613d2e565b60008511610c445760405162461bcd60e51b815260040161084290613c61565b610c4f87878761251c565b979650505050505050565b600082815260976020526040902060010154610c758161240c565b610c7f8383612540565b505050565b6001600160a01b0381163314610cf45760405162461bcd60e51b815260206004820152602f60248201527f416363657373436f6e74726f6c3a2063616e206f6e6c792072656e6f756e636560448201526e103937b632b9903337b91039b2b63360891b6064820152608401610842565b610cfe82826125c6565b5050565b6001600160a01b037f0000000000000000000000000000000000000000000000000000000000000000163003610d4a5760405162461bcd60e51b815260040161084290613d71565b7f00000000000000000000000000000000000000000000000000000000000000006001600160a01b0316610d936000805160206140da833981519152546001600160a01b031690565b6001600160a01b031614610db95760405162461bcd60e51b815260040161084290613dbd565b610dc28161262d565b60408051600080825260208201909252610dde91839190612645565b50565b6000610deb6123ad565b61019154604051631782770f60e21b81526001600160a01b03808616600483015285921690635e09dc3c90602401602060405180830381865afa158015610e36573d6000803e3d6000fd5b505050506040513d601f19601f82011682018060405250810190610e5a9190613bc6565b15610e775760405162461bcd60e51b815260040161084290613be8565b3361019154604051631782770f60e21b81526001600160a01b03838116600483015290911690635e09dc3c90602401602060405180830381865afa158015610ec3573d6000803e3d6000fd5b505050506040513d601f19601f82011682018060405250810190610ee79190613bc6565b15610f045760405162461bcd60e51b815260040161084290613be8565b6001600160a01b038516610f2a5760405162461bcd60e51b815260040161084290613c1f565b60008411610f4a5760405162461bcd60e51b815260040161084290613c61565b61092885856127b0565b610f5c6127d2565b610f64612825565b565b610f6e6123ad565b61019154604051631782770f60e21b81526001600160a01b03808516600483015284921690635e09dc3c90602401602060405180830381865afa158015610fb9573d6000803e3d6000fd5b505050506040513d601f19601f82011682018060405250810190610fdd9190613bc6565b15610ffa5760405162461bcd60e51b815260040161084290613be8565b3361019154604051631782770f60e21b81526001600160a01b03838116600483015290911690635e09dc3c90602401602060405180830381865afa158015611046573d6000803e3d6000fd5b505050506040513d601f19601f8201168201806040525081019061106a9190613bc6565b156110875760405162461bcd60e51b815260040161084290613be8565b60008051602061414183398151915261109f8161240c565b6001600160a01b0385166110c55760405162461bcd60e51b815260040161084290613d2e565b600084116110e55760405162461bcd60e51b815260040161084290613c61565b6110ef858561283d565b60405184906001600160a01b038716907f0f6798a560793a54c3bcfe86a93cde1e73087d944c0ea20544137d412139688590600090a35050505050565b6111346123ad565b3361019154604051631782770f60e21b81526001600160a01b03838116600483015290911690635e09dc3c90602401602060405180830381865afa158015611180573d6000803e3d6000fd5b505050506040513d601f19601f820116820180604052508101906111a49190613bc6565b156111c15760405162461bcd60e51b815260040161084290613be8565b60008051602061407a8339815191526111d98161240c565b600083116111f95760405162461bcd60e51b815260040161084290613c61565b6112033384612416565b604051839033907fcc16f5dbb4873280815c1ee09dbd06736cffcc184412cf7a71a0fdb75d397ca590600090a3505050565b6001600160a01b037f000000000000000000000000000000000000000000000000000000000000000016300361127d5760405162461bcd60e51b815260040161084290613d71565b7f00000000000000000000000000000000000000000000000000000000000000006001600160a01b03166112c66000805160206140da833981519152546001600160a01b031690565b6001600160a01b0316146112ec5760405162461bcd60e51b815260040161084290613dbd565b6112f58261262d565b610cfe82826001612645565b6000306001600160a01b037f000000000000000000000000000000000000000000000000000000000000000016146113a15760405162461bcd60e51b815260206004820152603860248201527f555550535570677261646561626c653a206d757374206e6f742062652063616c60448201527f6c6564207468726f7567682064656c656761746563616c6c00000000000000006064820152608401610842565b506000805160206140da83398151915290565b6101c380546113c290613b8c565b80601f01602080910402602001604051908101604052809291908181526020018280546113ee90613b8c565b801561143b5780601f106114105761010080835404028352916020019161143b565b820191906000526020600020905b81548152906001019060200180831161141e57829003601f168201915b505050505081565b61019154604051631782770f60e21b81526001600160a01b0383811660048301526000921690635e09dc3c90602401602060405180830381865afa15801561148f573d6000803e3d6000fd5b505050506040513d601f19601f820116820180604052508101906107149190613bc6565b60008051602061409a8339815191526114cb8161240c565b6114d36123ad565b3361019154604051631782770f60e21b81526001600160a01b03838116600483015290911690635e09dc3c90602401602060405180830381865afa15801561151f573d6000803e3d6000fd5b505050506040513d601f19601f820116820180604052508101906115439190613bc6565b156115605760405162461bcd60e51b815260040161084290613be8565b600083116115c45760405162461bcd60e51b815260206004820152602b60248201527f45524332303a2065746820616d6f756e74206d7573742062652067726561746560448201526a72207468616e207a65726f60a81b6064820152608401610842565b4783111561163a5760405162461bcd60e51b815260206004820152603d60248201527f45524332303a2065746820616d6f756e7420697320677265617465722074686160448201527f6e207468652062616c616e6365206f662074686520636f6e74726163740000006064820152608401610842565b6040514790339085156108fc029086906000818181858888f19350505050158015611669573d6000803e3d6000fd5b50478082867f458b146c294cf8d153a36bfe42b0797cb5acd82d11132da7c0b7c751b26bad03336040516001600160a01b03909116815260200160405180910390a45050505050565b610f5c61290a565b60008051602061409a8339815191526116d28161240c565b6116da6123ad565b3361019154604051631782770f60e21b81526001600160a01b03838116600483015290911690635e09dc3c90602401602060405180830381865afa158015611726573d6000803e3d6000fd5b505050506040513d601f19601f8201168201806040525081019061174a9190613bc6565b156117675760405162461bcd60e51b815260040161084290613be8565b6001600160a01b0384166117c95760405162461bcd60e51b8152602060048201526024808201527f45524332303a20746f6b656e2061646472657373206973207a65726f206164646044820152637265737360e01b6064820152608401610842565b6000831161182f5760405162461bcd60e51b815260206004820152602d60248201527f45524332303a20746f6b656e20616d6f756e74206d757374206265206772656160448201526c746572207468616e207a65726f60981b6064820152608401610842565b306001600160a01b038516036118ad5760405162461bcd60e51b815260206004820152603860248201527f45524332303a20746f6b656e2061646472657373206973207468652073616d6560448201527f2061732074686520636f6e7472616374206164647265737300000000000000006064820152608401610842565b306000908152603360205260409020548311156119325760405162461bcd60e51b815260206004820152603f60248201527f45524332303a20746f6b656e20616d6f756e742069732067726561746572207460448201527f68616e207468652062616c616e6365206f662074686520636f6e7472616374006064820152608401610842565b6040516370a0823160e01b81523060048201526000906001600160a01b038616906370a0823190602401602060405180830381865afa158015611979573d6000803e3d6000fd5b505050506040513d601f19601f8201168201806040525081019061199d9190613e09565b90506119b36001600160a01b0386163386612948565b6040516370a0823160e01b81523060048201526000906001600160a01b038716906370a0823190602401602060405180830381865afa1580156119fa573d6000803e3d6000fd5b505050506040513d601f19601f82011682018060405250810190611a1e9190613e09565b905080856001600160a01b0388167f94285878883c1aac9c53a8adff17a93f5b297053c483d92a059e7e6651b2c5f633604080516001600160a01b039092168252602082018890520160405180910390a4505050505050565b60009182526097602090815260408084206001600160a01b0393909316845291905290205460ff1690565b60606037805461072990613b8c565b600054610100900460ff1615808015611ad15750600054600160ff909116105b80611aeb5750303b158015611aeb575060005460ff166001145b611b4e5760405162461bcd60e51b815260206004820152602e60248201527f496e697469616c697a61626c653a20636f6e747261637420697320616c72656160448201526d191e481a5b9a5d1a585b1a5e995960921b6064820152608401610842565b6000805460ff191660011790558015611b71576000805461ff0019166101001790555b60008c5111611bc25760405162461bcd60e51b815260206004820152601b60248201527f546f6b656e206e616d652063616e206e6f7420626520656d70747900000000006044820152606401610842565b60008b5111611c135760405162461bcd60e51b815260206004820152601d60248201527f546f6b656e2073796d626f6c2063616e206e6f7420626520656d7074790000006044820152606401610842565b60008a5111611c645760405162461bcd60e51b815260206004820152601860248201527f76657273696f6e2063616e206e6f7420626520656d70747900000000000000006044820152606401610842565b60008960ff1611611cb75760405162461bcd60e51b815260206004820152601760248201527f646563696d616c2063616e206e6f74206265207a65726f0000000000000000006044820152606401610842565b6001600160a01b038716611d0d5760405162461bcd60e51b815260206004820152601d60248201527f61646d696e2063616e206e6f74206265207a65726f20616464726573730000006044820152606401610842565b6001600160a01b038616611d6f5760405162461bcd60e51b8152602060048201526024808201527f70617573654d616e616765722063616e206e6f74206265207a65726f206164646044820152637265737360e01b6064820152608401610842565b6001600160a01b038516611dc55760405162461bcd60e51b815260206004820152601e60248201527f6d696e7465722063616e206e6f74206265207a65726f206164647265737300006044820152606401610842565b6001600160a01b038416611e1b5760405162461bcd60e51b815260206004820152601e60248201527f6275726e65722063616e206e6f74206265207a65726f206164647265737300006044820152606401610842565b6001600160a01b038316611e715760405162461bcd60e51b815260206004820181905260248201527f75706772616465722063616e206e6f74206265207a65726f20616464726573736044820152606401610842565b6001600160a01b038216611ed55760405162461bcd60e51b815260206004820152602560248201527f7265736375654d616e616765722063616e206e6f74206265207a65726f206164604482015264647265737360d81b6064820152608401610842565b611eee600080516020614141833981519152600061299a565b611f0760008051602061407a833981519152600061299a565b611f206000805160206140ba833981519152600061299a565b611f3960008051602061409a833981519152600061299a565b611f526000805160206140fa833981519152600061299a565b611f5d600088612540565b611f756000805160206140fa83398151915287612540565b611f8d60008051602061414183398151915286612540565b611fa560008051602061407a83398151915285612540565b611fbd6000805160206140ba83398151915284612540565b611fd560008051602061409a83398151915283612540565b6101c3611fe28b82613e70565b506101c4805460ff191660ff8b16179055611ffd8c8c6129e5565b612005612a16565b61200d612a16565b61201688612a3d565b801561205c576000805461ff0019169055604051600181527f7f26b83ff96e1f2b6a682f133852f6798a09c465da95921460cefb38474024989060200160405180910390a15b505050505050505050505050565b60006120746123ad565b61019154604051631782770f60e21b81526001600160a01b03808616600483015285921690635e09dc3c90602401602060405180830381865afa1580156120bf573d6000803e3d6000fd5b505050506040513d601f19601f820116820180604052508101906120e39190613bc6565b156121005760405162461bcd60e51b815260040161084290613be8565b3361019154604051631782770f60e21b81526001600160a01b03838116600483015290911690635e09dc3c90602401602060405180830381865afa15801561214c573d6000803e3d6000fd5b505050506040513d601f19601f820116820180604052508101906121709190613bc6565b1561218d5760405162461bcd60e51b815260040161084290613be8565b6001600160a01b0385166121b35760405162461bcd60e51b815260040161084290613c1f565b600084116121d35760405162461bcd60e51b815260040161084290613c61565b6109288585612a64565b60006121e76123ad565b3361019154604051631782770f60e21b81526001600160a01b03838116600483015290911690635e09dc3c90602401602060405180830381865afa158015612233573d6000803e3d6000fd5b505050506040513d601f19601f820116820180604052508101906122579190613bc6565b156122745760405162461bcd60e51b815260040161084290613be8565b61019154604051631782770f60e21b81526001600160a01b03808716600483015286921690635e09dc3c90602401602060405180830381865afa1580156122bf573d6000803e3d6000fd5b505050506040513d601f19601f820116820180604052508101906122e39190613bc6565b156123005760405162461bcd60e51b815260040161084290613be8565b600084116123205760405162461bcd60e51b815260040161084290613c61565b6109288585612adf565b6000828152609760205260409020600101546123458161240c565b610c7f83836125c6565b600061235a83611443565b80612369575061236982611443565b1561237657506000610714565b6001600160a01b038084166000908152603460209081526040808320938616835292905220545b9392505050565b610dde81612aed565b61012d5460ff1615610f645760405162461bcd60e51b815260206004820152601060248201526f14185d5cd8589b194e881c185d5cd95960821b6044820152606401610842565b600033612402818585612bc5565b5060019392505050565b610dde8133612cae565b6001600160a01b03821661243c5760405162461bcd60e51b815260040161084290613ca8565b61244882600083612d07565b6001600160a01b038216600090815260336020526040902054818110156124bc5760405162461bcd60e51b815260206004820152602260248201527f45524332303a206275726e20616d6f756e7420657863656564732062616c616e604482015261636560f01b6064820152608401610842565b6001600160a01b03831660008181526033602090815260408083208686039055603580548790039055518581529192917fddf252ad1be2c89b69c2b068fc378daa952ba7f163c4a11628f55a4df523b3ef910160405180910390a3505050565b60003361252a858285612f7f565b612535858585612ff9565b506001949350505050565b61254a8282611a77565b610cfe5760008281526097602090815260408083206001600160a01b03851684529091529020805460ff191660011790556125823390565b6001600160a01b0316816001600160a01b0316837f2f8788117e7eff1d82e926ec794901d17c78024a50270940304540a733656f0d60405160405180910390a45050565b6125d08282611a77565b15610cfe5760008281526097602090815260408083206001600160a01b0385168085529252808320805460ff1916905551339285917ff6391f5c32d9c69d2a47ea670b442974b53935d1edc7fd64eb21e047a839171b9190a45050565b6000805160206140ba833981519152610cfe8161240c565b7f4910fdfa16fed3260ed0e7147f7cc6da11a60208b5b9406d12a635614ffd91435460ff161561267857610c7f83613135565b826001600160a01b03166352d1902d6040518163ffffffff1660e01b8152600401602060405180830381865afa9250505080156126d2575060408051601f3d908101601f191682019092526126cf91810190613e09565b60015b6127355760405162461bcd60e51b815260206004820152602e60248201527f45524331393637557067726164653a206e657720696d706c656d656e7461746960448201526d6f6e206973206e6f74205555505360901b6064820152608401610842565b6000805160206140da83398151915281146127a45760405162461bcd60e51b815260206004820152602960248201527f45524331393637557067726164653a20756e737570706f727465642070726f786044820152681a58589b195555525160ba1b6064820152608401610842565b50610c7f8383836131d1565b6000336124028185856127c3838361234f565b6127cd9190613f46565b612bc5565b6127da6131f6565b61012d805460ff191690557f5db9ee0a495bf2e6ff9c91a7834c1ba4fdd244a5e8aa4e537bd38aeae4b073aa335b6040516001600160a01b03909116815260200160405180910390a1565b6000805160206140fa833981519152610dde8161240c565b6001600160a01b0382166128935760405162461bcd60e51b815260206004820152601f60248201527f45524332303a206d696e7420746f20746865207a65726f2061646472657373006044820152606401610842565b61289f60008383612d07565b80603560008282546128b19190613f46565b90915550506001600160a01b0382166000818152603360209081526040808320805486019055518481527fddf252ad1be2c89b69c2b068fc378daa952ba7f163c4a11628f55a4df523b3ef910160405180910390a35050565b6129126123ad565b61012d805460ff191660011790557f62e78cea01bee320cd4e420270b5ea74000d11b0c9f74754ebdbfc544b05a2586128083390565b604080516001600160a01b038416602482015260448082018490528251808303909101815260649091019091526020810180516001600160e01b031663a9059cbb60e01b179052610c7f908490613240565b600082815260976020526040808220600101805490849055905190918391839186917fbd79b86ffe0ab8e8776151514217cd7cacd52c909f66475c3af44e129f0b00ff9190a4505050565b600054610100900460ff16612a0c5760405162461bcd60e51b815260040161084290613f59565b610cfe8282613312565b600054610100900460ff16610f645760405162461bcd60e51b815260040161084290613f59565b600054610100900460ff166123a45760405162461bcd60e51b815260040161084290613f59565b60003381612a72828661234f565b905083811015612ad25760405162461bcd60e51b815260206004820152602560248201527f45524332303a2064656372656173656420616c6c6f77616e63652062656c6f77604482015264207a65726f60d81b6064820152608401610842565b6125358286868403612bc5565b600033612402818585612ff9565b6001600160a01b038116612b555760405162461bcd60e51b815260206004820152602960248201527f73616e6374696f6e206c697374206164647265737320697320746865207a65726044820152686f206164647265737360b81b6064820152608401610842565b61019154604080516001600160a01b03928316815291831660208301523382820152517f40098fb99f30c254b0c0e436cf8bd87ff14e5722e906fe45a8d437ff3f08d3929181900360600190a161019180546001600160a01b0319166001600160a01b0392909216919091179055565b6001600160a01b038316612c275760405162461bcd60e51b8152602060048201526024808201527f45524332303a20617070726f76652066726f6d20746865207a65726f206164646044820152637265737360e01b6064820152608401610842565b6001600160a01b038216612c4d5760405162461bcd60e51b815260040161084290613c1f565b6001600160a01b0383811660008181526034602090815260408083209487168084529482529182902085905590518481527f8c5be1e5ebec7d5bd14f71427d1e84f3dd0314c0f7b2291e5b200ac8c7c3b925910160405180910390a3505050565b612cb88282611a77565b610cfe57612cc581613352565b612cd0836020613364565b604051602001612ce1929190613fa4565b60408051601f198184030181529082905262461bcd60e51b82526108429160040161381c565b612d0f6123ad565b61019154604051631782770f60e21b81526001600160a01b03808516600483015284921690635e09dc3c90602401602060405180830381865afa158015612d5a573d6000803e3d6000fd5b505050506040513d601f19601f82011682018060405250810190612d7e9190613bc6565b15612d9b5760405162461bcd60e51b815260040161084290613be8565b3361019154604051631782770f60e21b81526001600160a01b03838116600483015290911690635e09dc3c90602401602060405180830381865afa158015612de7573d6000803e3d6000fd5b505050506040513d601f19601f82011682018060405250810190612e0b9190613bc6565b15612e285760405162461bcd60e51b815260040161084290613be8565b604051631782770f60e21b81526001600160a01b03861660048201523090635e09dc3c90602401602060405180830381865afa158015612e6c573d6000803e3d6000fd5b505050506040513d601f19601f82011682018060405250810190612e909190613bc6565b1580612f1b5750306391d1485460008051602061407a833981519152336040516001600160e01b031960e085901b16815260048101929092526001600160a01b03166024820152604401602060405180830381865afa158015612ef7573d6000803e3d6000fd5b505050506040513d601f19601f82011682018060405250810190612f1b9190613bc6565b612f785760405162461bcd60e51b815260206004820152602860248201527f455243323020546f6b656e3a2046726f6d206164647265737320697320626c6160448201526718dadb1a5cdd195960c21b6064820152608401610842565b5050505050565b6000612f8b848461234f565b90506000198114612ff35781811015612fe65760405162461bcd60e51b815260206004820152601d60248201527f45524332303a20696e73756666696369656e7420616c6c6f77616e63650000006044820152606401610842565b612ff38484848403612bc5565b50505050565b6001600160a01b03831661301f5760405162461bcd60e51b815260040161084290613ce9565b6001600160a01b0382166130455760405162461bcd60e51b815260040161084290613d2e565b613050838383612d07565b6001600160a01b038316600090815260336020526040902054818110156130c85760405162461bcd60e51b815260206004820152602660248201527f45524332303a207472616e7366657220616d6f756e7420657863656564732062604482015265616c616e636560d01b6064820152608401610842565b6001600160a01b0380851660008181526033602052604080822086860390559286168082529083902080548601905591517fddf252ad1be2c89b69c2b068fc378daa952ba7f163c4a11628f55a4df523b3ef906131289086815260200190565b60405180910390a3612ff3565b6001600160a01b0381163b6131a25760405162461bcd60e51b815260206004820152602d60248201527f455243313936373a206e657720696d706c656d656e746174696f6e206973206e60448201526c1bdd08184818dbdb9d1c9858dd609a1b6064820152608401610842565b6000805160206140da83398151915280546001600160a01b0319166001600160a01b0392909216919091179055565b6131da83613500565b6000825111806131e75750805b15610c7f57612ff38383613540565b61012d5460ff16610f645760405162461bcd60e51b815260206004820152601460248201527314185d5cd8589b194e881b9bdd081c185d5cd95960621b6044820152606401610842565b6000613295826040518060400160405280602081526020017f5361666545524332303a206c6f772d6c6576656c2063616c6c206661696c6564815250856001600160a01b031661362b9092919063ffffffff16565b805190915015610c7f57808060200190518101906132b39190613bc6565b610c7f5760405162461bcd60e51b815260206004820152602a60248201527f5361666545524332303a204552433230206f7065726174696f6e20646964206e6044820152691bdd081cdd58d8d9595960b21b6064820152608401610842565b600054610100900460ff166133395760405162461bcd60e51b815260040161084290613f59565b60366133458382613e70565b506037610c7f8282613e70565b60606107146001600160a01b03831660145b60606000613373836002614019565b61337e906002613f46565b67ffffffffffffffff81111561339657613396613931565b6040519080825280601f01601f1916602001820160405280156133c0576020820181803683370190505b509050600360fc1b816000815181106133db576133db614030565b60200101906001600160f81b031916908160001a905350600f60fb1b8160018151811061340a5761340a614030565b60200101906001600160f81b031916908160001a905350600061342e846002614019565b613439906001613f46565b90505b60018111156134b1576f181899199a1a9b1b9c1cb0b131b232b360811b85600f166010811061346d5761346d614030565b1a60f81b82828151811061348357613483614030565b60200101906001600160f81b031916908160001a90535060049490941c936134aa81614046565b905061343c565b50831561239d5760405162461bcd60e51b815260206004820181905260248201527f537472696e67733a20686578206c656e67746820696e73756666696369656e746044820152606401610842565b61350981613135565b6040516001600160a01b038216907fbc7cd75a20ee27fd9adebab32041f755214dbc6bffa90cc0225b39da2e5c2d3b90600090a250565b60606001600160a01b0383163b6135a85760405162461bcd60e51b815260206004820152602660248201527f416464726573733a2064656c65676174652063616c6c20746f206e6f6e2d636f6044820152651b9d1c9858dd60d21b6064820152608401610842565b600080846001600160a01b0316846040516135c3919061405d565b600060405180830381855af49150503d80600081146135fe576040519150601f19603f3d011682016040523d82523d6000602084013e613603565b606091505b5091509150610928828260405180606001604052806027815260200161411a60279139613642565b606061363a848460008561365b565b949350505050565b6060831561365157508161239d565b61239d838361372b565b6060824710156136bc5760405162461bcd60e51b815260206004820152602660248201527f416464726573733a20696e73756666696369656e742062616c616e636520666f6044820152651c8818d85b1b60d21b6064820152608401610842565b600080866001600160a01b031685876040516136d8919061405d565b60006040518083038185875af1925050503d8060008114613715576040519150601f19603f3d011682016040523d82523d6000602084013e61371a565b606091505b5091509150610c4f87838387613755565b81511561373b5781518083602001fd5b8060405162461bcd60e51b8152600401610842919061381c565b606083156137c45782516000036137bd576001600160a01b0385163b6137bd5760405162461bcd60e51b815260206004820152601d60248201527f416464726573733a2063616c6c20746f206e6f6e2d636f6e74726163740000006044820152606401610842565b508161363a565b61363a838361372b565b6000602082840312156137e057600080fd5b81356001600160e01b03198116811461239d57600080fd5b60005b838110156138135781810151838201526020016137fb565b50506000910152565b602081526000825180602084015261383b8160408501602087016137f8565b601f01601f19169190910160400192915050565b80356001600160a01b038116811461386657600080fd5b919050565b6000806040838503121561387e57600080fd5b6138878361384f565b946020939093013593505050565b6000602082840312156138a757600080fd5b61239d8261384f565b6000806000606084860312156138c557600080fd5b6138ce8461384f565b92506138dc6020850161384f565b9150604084013590509250925092565b6000602082840312156138fe57600080fd5b5035919050565b6000806040838503121561391857600080fd5b823591506139286020840161384f565b90509250929050565b634e487b7160e01b600052604160045260246000fd5b600067ffffffffffffffff8084111561396257613962613931565b604051601f8501601f19908116603f0116810190828211818310171561398a5761398a613931565b816040528093508581528686860111156139a357600080fd5b858560208301376000602087830101525050509392505050565b600080604083850312156139d057600080fd5b6139d98361384f565b9150602083013567ffffffffffffffff8111156139f557600080fd5b8301601f81018513613a0657600080fd5b613a1585823560208401613947565b9150509250929050565b600082601f830112613a3057600080fd5b61239d83833560208501613947565b803560ff8116811461386657600080fd5b60008060008060008060008060008060006101608c8e031215613a7257600080fd5b67ffffffffffffffff808d351115613a8957600080fd5b613a968e8e358f01613a1f565b9b508060208e01351115613aa957600080fd5b613ab98e60208f01358f01613a1f565b9a508060408e01351115613acc57600080fd5b50613add8d60408e01358e01613a1f565b9850613aeb60608d01613a3f565b9750613af960808d0161384f565b9650613b0760a08d0161384f565b9550613b1560c08d0161384f565b9450613b2360e08d0161384f565b9350613b326101008d0161384f565b9250613b416101208d0161384f565b9150613b506101408d0161384f565b90509295989b509295989b9093969950565b60008060408385031215613b7557600080fd5b613b7e8361384f565b91506139286020840161384f565b600181811c90821680613ba057607f821691505b602082108103613bc057634e487b7160e01b600052602260045260246000fd5b50919050565b600060208284031215613bd857600080fd5b8151801515811461239d57600080fd5b6020808252601f908201527f61646472657373206973206f6e207468652073616e6374696f6e206c69737400604082015260600190565b60208082526022908201527f45524332303a20617070726f766520746f20746865207a65726f206164647265604082015261737360f01b606082015260800190565b60208082526027908201527f45524332303a20616d6f756e74206d7573742062652067726561746572207468604082015266616e207a65726f60c81b606082015260800190565b60208082526021908201527f45524332303a206275726e2066726f6d20746865207a65726f206164647265736040820152607360f81b606082015260800190565b60208082526025908201527f45524332303a207472616e736665722066726f6d20746865207a65726f206164604082015264647265737360d81b606082015260800190565b60208082526023908201527f45524332303a207472616e7366657220746f20746865207a65726f206164647260408201526265737360e81b606082015260800190565b6020808252602c908201527f46756e6374696f6e206d7573742062652063616c6c6564207468726f7567682060408201526b19195b1959d85d1958d85b1b60a21b606082015260800190565b6020808252602c908201527f46756e6374696f6e206d7573742062652063616c6c6564207468726f7567682060408201526b6163746976652070726f787960a01b606082015260800190565b600060208284031215613e1b57600080fd5b5051919050565b601f821115610c7f57600081815260208120601f850160051c81016020861015613e495750805b601f850160051c820191505b81811015613e6857828155600101613e55565b505050505050565b815167ffffffffffffffff811115613e8a57613e8a613931565b613e9e81613e988454613b8c565b84613e22565b602080601f831160018114613ed35760008415613ebb5750858301515b600019600386901b1c1916600185901b178555613e68565b600085815260208120601f198616915b82811015613f0257888601518255948401946001909101908401613ee3565b5085821015613f205787850151600019600388901b60f8161c191681555b5050505050600190811b01905550565b634e487b7160e01b600052601160045260246000fd5b8082018082111561071457610714613f30565b6020808252602b908201527f496e697469616c697a61626c653a20636f6e7472616374206973206e6f74206960408201526a6e697469616c697a696e6760a81b606082015260800190565b7f416363657373436f6e74726f6c3a206163636f756e7420000000000000000000815260008351613fdc8160178501602088016137f8565b7001034b99036b4b9b9b4b733903937b6329607d1b601791840191820152835161400d8160288401602088016137f8565b01602801949350505050565b808202811582820484141761071457610714613f30565b634e487b7160e01b600052603260045260246000fd5b60008161405557614055613f30565b506000190190565b6000825161406f8184602087016137f8565b919091019291505056fe3c11d16cbaffd01df69ce1c404f6340ee057498f5f00246190ea54220576a84857a822ae3814185637b9427087156e2a27e354ad6170f97f0db8b3aef759501d189ab7a9244df0848122154315af71fe140f3db0fe014031783b0946b8c9d2e3360894a13ba1a3210667c828492db98dca3e2076cc3735a920a3ca505d382bbc65d7a28e3265b37a6474929f336521b332c1681b933f6cb9f3376673440d862a416464726573733a206c6f772d6c6576656c2064656c65676174652063616c6c206661696c65649f2df0fed2c77648de5860a4cc508cd0818c85b8b8a1ab4ceeef8d981c8956a6a2646970667358221220f7f00660914187121cde44ac7f02d7c6dc69bef723b5430595fc35bd3025a17c64736f6c63430008110033",
  "linkReferences": {},
  "deployedLinkReferences": {}
}